:020000040000FA
:0400000000EF01F01C
:020004000000FA
:100200000101936A956A046B3F0E006F060E016F41
:100210005B0E026F4F0E036F056B816A13EC01F0EA
:1002200039EC01F0FBD70451030B020DF350F92612
:1002300004D00AD010D016D01200816A836A00510F
:10024000816E8380042B1200816A836A0151816E62
:100250008382042B1200816A836A0251816E838437
:10026000042B1200816A836A0351816E8386042BFA
:0C0270001200FF0E066E062EFED71200D4
:020000040030CA
:0100010021DD
:010003000EEE
:00000001FF
