:0600000000F059EF1EF0B4
:103CB000FFFF00EE10F00C0EEE6AE806FDE1000ECC
:103CC000F86E0001D4EF1EF0FFFF000E026E000E32
:103CD000016EFFFF014A022A02BEFBD7025004E137
:103CE0000D0E015CD8A0F5D7000E836E83CF81FF47
:103CF0001200FFFFFFFFFFFF000E046E000E036EB9
:103D000012D0FFFF10C081FF838064EC1EF012C050
:103D100081FF838264EC1EF014C081FF838464EC15
:103D20001EF0034A042AFFFF04BEEBD7045004E14F
:103D3000330E035CD8A0E5D71200FFFFFFFF000E93
:103D40000C6E000E0B6E25D0FFFF09C001F00AC0FB
:103D500002F0000E046E0A0E036E0EEC1FF00B5004
:103D6000020DF350160FD96EDA6A01C0DEFF02C0F1
:103D7000DDFF09C001F00AC002F0000E046E0A0E59
:103D8000036E50EC1FF001C009F002C00AF00B4AAC
:103D90000C2AFFFF0ABE05D00A50D6E10904D8B0AC
:103DA000D3D7FFFF1200FFFFFFFF000E0D6E000EC6
:103DB000956E95CF93FF000E836E83CF81FFFFFF3B
:103DC0000DC009F00A6A9EEC1EF00D2A000E0F6E5F
:103DD000000E0E6EFFFF0E50020DF350160FD96E3F
:103DE000DA6ADECF01F0DDCF02F09CEC1FF00E505E
:103DF000020DF350100FD96EDA6A01C0DEFF02C067
:103E0000DDFF0E4A0F2A0FBEE5D70F5004E1030E67
:103E10000E5CD8A0DFD77BEC1EF0D1D7FFFF000EE1
:103E2000066E02AE06D0016C021ED8B0022A010E48
:103E3000066EFFFF04AE04D0036C041ED8B0042A43
:103E4000FFFF03500410D8B41CD0010E056E05D03E
:103E5000FFFFD89003360436052AFFFF04AEF8D7DB
:103E6000FFFF0350015C04500258D8A004D0035057
:103E7000015E0450025AFFFFD89004320332052E2F
:103E8000EFD7FFFF0650D8B404D0016C021ED8B0A3
:103E9000022AFFFF01C001F002C002F01200FFFF82
:103EA000FFFF000E066E04AE06D0036C041ED8B0F1
:103EB000042A010E066EFFFF02AE06D0016C021E40
:103EC000D8B0022A010E061AFFFF000E086E000E7F
:103ED000076E03500410D8B420D0010E056E05D033
:103EE000FFFFD89003360436052AFFFF04AEF8D74B
:103EF000FFFFD890073608360350015C0450025883
:103F0000D8A005D00350015E0450025A0780FFFF7D
:103F1000D89004320332052EEBD7FFFF0650D8B4F9
:103F200004D0076C081ED8B0082AFFFF07C001F0B4
:103F300008C002F01200FFFFFFFF32D0FFFF000EAB
:103F4000026E3F0E59D0FFFF000E026E060E54D0D7
:103F5000FFFF000E026E5B0E4FD0FFFF000E026EE1
:103F60004F0E4AD0FFFF000E026E660E45D0FFFFD7
:103F7000000E026E6D0E40D0FFFF000E026E7D0E31
:103F80003BD0FFFF000E026E070E36D0FFFF000E83
:103F9000026E7F0E31D0FFFF000E026E6F0E2CD02E
:103FA000FFFF01C003F002C004F00450000AD8A4CF
:103FB0001FD00350000AD8B4C1D7010AD8B4C3D760
:103FC000030AD8B4C5D7010AD8B4C7D7070AD8B4EA
:103FD000C9D7010AD8B4CBD7030AD8B4CDD7010AC0
:103FE000D8B4CFD70F0AD8B4D1D7010AD8B4D3D711
:103FF000FFFF000E026E000EFFFF016E1200FFFFBA
:020000040020DA
:08000000FFFFFFFFFFFFFFFF00
:020000040030CA
:0E000000FF270F0FFF0185FF0FC00FE00F401D
:00000001FF
